:100000000C9446000C9465000C9465000C946500FB
:100010000C9465000C9465000C9465000C946500CC
:100020000C9465000C9465000C9465000C946500BC
:100030000C9465000C940C010C9465000C94650004
:100040000C9465000C9465000C9465000C9465009C
:100050000C9465000C9465000C9465000C9465008C
:100060000C9465000C9465000C9465000C9465007C
:100070000C9465000C9465000C9465000C9465006C
:100080000C9465000C9465000C94650011241FBE4F
:10009000CFEFD0E4DEBFCDBF11E0A0E0B1E0EAE6F3
:1000A000F4E000E00BBF02C007900D92A631B1074B
:1000B000D9F721E0A6E1B1E001C01D92A032B2075C
:1000C000E1F70E94F4010C9433020C940000CF93EA
:1000D000DF9300D01F92CDB7DEB789837B836A831D
:1000E00089818A3031F48A819B81BC018DE00E9434
:1000F000670080EC90E0FC018081882F90E08072A6
:100100009927892BB1F386EC90E02981FC012083AB
:1001100080E090E00F900F900F90DF91CF910895C5
:10012000CF93DF9300D000D0CDB7DEB769837A8359
:100130008B839C8389819A81AB81BC8180930E01E2
:1001400090930F01A0931001B093110180910E01C3
:1001500090910F01A0911001B091110180931701AE
:1001600090931801A0931901B0931A0100000F9009
:100170000F900F900F90DF91CF910895CF93DF9361
:10018000CDB7DEB781E890E02BE0FC01208388E862
:1001900090E02DE730E0FC01318320838FE690E092
:1001A00022E0FC01208384E890E0FC0111821082AF
:1001B00080910E0190910F01A0911001B091110159
:1001C0008093170190931801A0931901B0931A011D
:1001D0008FE590E02FE530E0F90120812068FC01F7
:1001E00020830000DF91CF910895CF93DF93CDB7A7
:1001F000DEB781E890E0FC0110820000DF91CF9132
:100200000895CF93DF93CDB7DEB781E080931601D9
:100210000000DF91CF9108951F920F9200905F0030
:100220000F92112400905B000F922F933F934F93F6
:100230005F936F937F938F939F93AF93BF93EF934E
:10024000FF93CF93DF93CDB7DEB7809117019091E5
:100250001801A0911901B0911A010197A109B109E2
:100260008093170190931801A0931901B0931A017C
:100270008091170190911801A0911901B0911A0174
:10028000892B8A2B8B2B91F40E94010180910E0106
:1002900090910F01A0911001B0911101809317016D
:1002A00090931801A0931901B0931A010000DF91F7
:1002B000CF91FF91EF91BF91AF919F918F917F91DE
:1002C0006F915F914F913F912F910F9000925B0042
:1002D0000F9000925F000F901F901895CF93DF93BF
:1002E000CDB7DEB780911B0190911C018230910542
:1002F000D9F18330910528F4009751F0019789F0E6
:100300005DC083309105F1F0049709F441C056C0F7
:1003100081E090E090931C0180931B0110921E01DC
:1003200052C080911D01882339F083E090E09093C2
:100330001C0180931B0147C080911E018F5F809339
:100340001E0141C080911D01882339F083E090E0B7
:1003500090931C0180931B0136C082E090E0909343
:100360001C0180931B012FC080911D01882349F03F
:1003700084E090E090931C0180931B0110921E0179
:1003800022C082E090E090931C0180931B011BC06F
:1003900080911D01882331F080911E018F5F809331
:1003A0001E0111C081E090E090931C0180931B011D
:1003B00080911E018F5F80931E0105C010921C0169
:1003C00010921B01000080911E01882F90E0837025
:1003D00099278E5E9E4FFC01808180931F01000053
:1003E0000000DF91CF910895CF93DF93CDB7DEB7B3
:1003F00084E290E02FEFFC01208385E290E0FC0195
:10040000108281E290E0FC01108282E290E02FEF06
:10041000FC0120836CE271E080E090E00E9490009B
:100420000E94BE0010921F0180E290E0FC018081DA
:10043000882F90E08170992721E0892B09F020E036
:10044000822F80931D010E946E0100008091160191
:100450008823E1F31092160185E290E020911F01BC
:0A046000FC012083E1CFF894FFCFE8
:10046A000000000200000000670000000000010018
:06047A0000000102040273
:00000001FF
