:100000000C9446000C9465000C9465000C946500FB
:100010000C9465000C9465000C9465000C946500CC
:100020000C9465000C9465000C9465000C946500BC
:100030000C9465000C940C010C9465000C94650004
:100040000C9465000C9465000C9465000C9465009C
:100050000C9465000C9465000C9465000C9465008C
:100060000C9465000C9465000C9465000C9465007C
:100070000C9465000C9465000C9465000C9465006C
:100080000C9465000C9465000C94650011241FBE4F
:10009000CFEFD0E4DEBFCDBF11E0A0E0B1E0E0EAF9
:1000A000F5E000E00BBF02C007900D92A231B1074E
:1000B000D9F721E0A2E1B1E001C01D92AD31B20754
:1000C000E1F70E947B020C94CE020C940000CF93C7
:1000D000DF9300D01F92CDB7DEB789837B836A831D
:1000E00089818A3031F48A819B81BC018DE00E9434
:1000F000670080EC90E0FC018081882F90E08072A6
:100100009927892BB1F386EC90E02981FC012083AB
:1001100080E090E00F900F900F90DF91CF910895C5
:10012000CF93DF9300D000D0CDB7DEB769837A8359
:100130008B839C8389819A81AB81BC8180930E01E2
:1001400090930F01A0931001B093110180910E01C3
:1001500090910F01A0911001B091110180931301B2
:1001600090931401A0931501B093160100000F9015
:100170000F900F900F90DF91CF910895CF93DF9361
:10018000CDB7DEB781E890E02BE0FC01208388E862
:1001900090E02DE730E0FC01318320838FE690E092
:1001A00022E0FC01208384E890E0FC0111821082AF
:1001B00080910E0190910F01A0911001B091110159
:1001C0008093130190931401A0931501B09316012D
:1001D0008FE590E02FE530E0F90120812068FC01F7
:1001E00020830000DF91CF910895CF93DF93CDB7A7
:1001F000DEB781E890E0FC0110820000DF91CF9132
:100200000895CF93DF93CDB7DEB781E080931201DD
:100210000000DF91CF9108951F920F9200905F0030
:100220000F92112400905B000F922F933F934F93F6
:100230005F936F937F938F939F93AF93BF93EF934E
:10024000FF93CF93DF93CDB7DEB7809113019091E9
:100250001401A0911501B09116010197A109B109EE
:100260008093130190931401A0931501B09316018C
:100270008091130190911401A0911501B091160184
:10028000892B8A2B8B2B91F40E94010180910E0106
:1002900090910F01A0911001B09111018093130171
:1002A00090931401A0931501B09316010000DF9103
:1002B000CF91FF91EF91BF91AF919F918F917F91DE
:1002C0006F915F914F913F912F910F9000925B0042
:1002D0000F9000925F000F901F901895CF93DF93BF
:1002E000CDB7DEB78091170190911801823091054A
:1002F00009F45AC08330910528F4009759F001970A
:1003000099F0E5C08330910509F48BC0049709F496
:10031000C8C0DDC081E090E0909318018093170180
:1003200087E080931B01DBC080911901882369F06D
:1003300080911C01882349F010921B0184E090E019
:100340009093180180931701CAC0809119018823E6
:1003500071F082E090E090931801809317018091F2
:100360001B018F5F80931B0110921A01B8C080910E
:100370001C01882391F083E090E090931801809312
:10038000170180911B01882329F080911B01815066
:1003900080931B0110921A01A2C081E090E090931B
:1003A0001801809317019BC080911901882391F156
:1003B00082E090E0909318018093170180911A01D8
:1003C0008F5F80931A0180911C01882349F010925D
:1003D0001B0184E090E090931801809317017CC08A
:1003E00090911A018DEC989F812D11248695869508
:1003F0008695880F282F220F220F820F292F281B66
:10040000822F882309F068C080911B018F5F809341
:100410001B0162C081E090E0909318018093170166
:100420005BC080911C018823A9F183E090E0909348
:1004300018018093170180911A018F5F80931A0130
:1004400080911901882349F010921B0184E090E00B
:10045000909318018093170141C090911A018DEC7F
:10046000989F812D1124869586958695880F282F33
:10047000220F220F820F292F281B822F882371F52C
:1004800080911B01882351F180911B018150809341
:100490001B0124C081E090E0909318018093170124
:1004A0001DC080911C01882359F480911901882373
:1004B00039F481E090E090931801809317010FC008
:1004C00084E090E0909318018093170108C0109287
:1004D00018011092170103C0000001C000008091B4
:1004E0001B018A3018F089E080931B010000000096
:1004F000DF91CF910895CF93DF93CDB7DEB784E23C
:1005000090E02FEFFC01208385E290E0FC01108257
:1005100081E290E0FC01108282E290E02FEFFC018A
:10052000208364E670E080E090E00E9490000E94EA
:10053000BE00109218011092170110921B01109228
:100540001A0180E290E0FC018081882F90E08170A8
:10055000992721E0892B09F020E0822F809319014F
:1005600080E290E0FC018081882F90E0809590955A
:10057000827099279595879580931C010E946E0142
:100580000000809112018823E1F31092120185E2AC
:1005900090E020911B01FC012083D3CFF894FFCF82
:1005A00000000002000000006700000000000100E1
:0205B000000049
:00000001FF
